S012000046616E2053797374656D2E7372656358
S11300000C942A000C9447000C9447000C9447006D
S11300100C9447000C9447000C9447000C94470040
S11300200C9447000C9447000C9447000C94470030
S11300300C9447000C9447000C9447000C94470020
S11300400C9447000C9447000C9447000C94470010
S11300500C94470011241FBECFE5D8E0DEBFCDBF0E
S113006010E0A0E6B0E0EEE7F3E102C005900D92E7
S1130070A837B107D9F710E0A8E7B0E001C01D9296
S1130080A837B107E1F70E9449000C94BD090C940C
S113009000000E94A9030E947B010E945E000E944E
S11300A0080280E00E94BD028FE39DE0A3E081503E
S11300B09040A040E1F700C00000F1CF83E060E091
S11300C041E00E94BC0383E061E041E00E94BC0384
S11300D083E060E040E00E94440483E061E040E0AB
S11300E00E9444040895CF93DF93C62FD42F813008
S11300F081F0813018F0823009F516C083E040E0C9
S11301000E9444046C2F6F5F83E040E00E9444042B
S113011015C083E041E00E9444046C2F6F5F83E0CC
S113012040E00E9444040AC083E040E00E9444048A
S11301306C2F6F5F83E041E00E944404D53608F0E1
S1130140D4E66D2F70E080E090E00E94480820E043
S113015030E048EC52E40E94B40720E030E04FE77E
S113016053E40E94FE080E941C08DC01CB010E949B
S1130170C106DF91CF91089581E06FE00E946D0583
S113018081E06FEF0E9480050895AF92BF92CF92F5
S1130190DF92EF92FF920F931F93CF93DF93CDB72C
S11301A0DEB760970FB6F894DEBF0FBECDBFDE0199
S11301B01196E0E6F0E080E101900D928150E1F7C4
S11301C0CC24DD240FEFAA246894A2F8BC2C81E08F
S11301D060E041E00E94440481E061E041E00E946B
S11301E0440481E062E041E00E94440481E063E071
S11301F041E00E94440481E06C2D40E00E944404EC
S1130200EE24FF24E394EC0EFD1EEC0CFD1C1A2DD1
S113021081E0612F0E940F05882311F4F70100810A
S113022081E0612F0E940F058823D1F38FEC97E0C2
S11302300197F1F700C000001F5FE4E0F0E0EE0E6C
S1130240FF1E183029F781E06B2D41E00E94440421
S11302500894C11CD11CF4E0CF16D10409F0B6CF28
S1130260802F60960FB6F894DEBF0FBECDBFDF912E
S1130270CF911F910F91FF90EF90DF90CF90BF909F
S1130280AF90089580E063E041E00E94440483EF6E
S113029091E00197F1F700C0000080E063E040E0E6
S11302A00E94440483EF91E00197F1F700C000003D
S11302B00895CF93C82F682F62956F7082E00E94D3
S11302C03C0680E064E040E00E9444040E94420155
S11302D082E06C2F0E943C0680E064E040E00E94D3
S11302E044040E94420189EF90E00197F1F700C0B5
S11302F00000CF9108958FE493EC0197F1F700C0CB
S1130300000082E064E041E00E94BC0382E065E01A
S113031041E00E94BC0382E066E041E00E94BC032D
S113032082E067E041E00E94BC0380E063E041E0DA
S11303300E94BC0380E065E041E00E94BC0380E0D1
S113034064E041E00E94BC0380E065E040E00E947C
S1130350440482E00E94590183EC99E00197F1F78B
S113036000C0000088E20E94590189EF90E00197E3
S1130370F1F700C000008EE00E94590189EF90E07F
S11303800197F1F700C0000081E00E94590183EC5D
S113039099E00197F1F700C0000086E00E9459013E
S11303A089EF90E00197F1F700C000000895CF9322
S11303B0C82F682F62956F7082E00E943C0680E02F
S11303C064E041E00E9444040E94420182E06C2FF8
S11303D00E943C0680E064E041E00E9444040E94E4
S11303E0420189EF90E00197F1F700C00000CF913E
S11303F00895CF93DF93EC018881882331F021960F
S11304000E94D70189918823D9F7DF91CF9108956C
S113041081E00E94590183EC99E00197F1F700C053
S113042000000895282F2150223070F4613170F4B7
S1130430662371F0813019F4962F91580AC08230E6
S113044041F4962F915405C090E803C090E801C090
S113045090E8892F0E94590189EF90E00197F1F704
S113046000C0000008954F925F926F927F928F9226
S11304709F92AF92BF92CF92DF92EF92FF92CF936F
S1130480DF936B017C01611571058105910521F4F0
S113049080E30E94D70162C099235CF48DE20E943C
S11304A0D701F094E094D094C094C11CD11CE11CF9
S11304B0F11C1C141D041E041F040CF04FC081E029
S11304C090E0A0E0B0E00F2EFAE08F2EF0E09F2E37
S11304D0F0E0AF2EF0E0BF2EF02DBC01CD01A50160
S11304E094010E9461092B013C01C701B6010E94DD
S11304F0A209DC01CB01840D951DA61DB71DC22EDA
S1130500D32EE42EF52E1C141D041E041F042CF3FC
S113051081309105A105B10509F10F2EFAE04F2EA6
S1130520F0E05F2EF0E06F2EF0E07F2EF02DBC01A6
S1130530CD01A30192010E94A209822EC32EC42FD1
S1130540D52F862F805D0E94D701882D9C2DAC2F3E
S1130550BD2F81309105A105B10549F7DF91CF91F8
S1130560FF90EF90DF90CF90BF90AF909F908F90CF
S11305707F906F905F904F9008954F925F926F922B
S11305807F928F929F92AF92BF92CF92DF92EF921F
S1130590FF921F93CF93DF93182F0E94B003BC01E7
S11305A080E090E00E94480820E030E040E250E41F
S11305B00E94FE080E941C08462E572E682E792E93
S11305C00E94B003EC01C301B2010E9448084B0130
S11305D05C0120E030E04AE754E40E94FA088823F2
S11305E094F4BE0180E090E00E94480820E030E0EE
S11305F040E85EE30E94FE080E941C08C62ED72E27
S1130600E82EF92E0EC0C301B201685E734080402B
S113061090402AE030E040E050E00E948009690107
S11306207A01C501B40120E030E04AE754E40E94B5
S1130630B0078823BCF488EE93E0A0E0B0E0BC01EE
S1130640CD0164197509860997092AE030E040E074
S113065050E00E94800969017A0188249924540198
S1130660839403C0882499245401D701C601845675
S11306709040A040B04083339105A105B10530F40A
S113068081E0612F44E60E9473003CC0D701C6019B
S113069086549040A040B0408E319105A105B1052B
S11306A030F481E0612F4BE40E9473002BC0D7012A
S11306B0C6018897A109B1098E319105A105B1053B
S11306C030F481E0612F42E30E9473001BC0D70124
S11306D0C6014597A109B10983319105A105B10569
S11306E030F482E0612F49E10E9473000BC085E180
S11306F0C816D104E104F10428F480E0612F40E03D
S11307000E94730080E790E00E94F9018114910433
S1130710A104B10421F08DE290E00E94D701C70149
S1130720B6010E943302DF91CF911F91FF90EF90A9
S1130730DF90CF90BF90AF909F908F907F906F90FD
S11307405F904F900895682F80E040E00E9473000E
S113075008953E9A3F9A3C9A379A329A319A08956C
S1130760369A349BFECF349A84B190E045B1342F4D
S113077020E0822B932B0895843008F084C06830E5
S113078008F081C0442309F042C08130B1F08130C7
S113079030F0823001F1833009F075C02AC02AB3E9
S11307A081E090E0AC0102C0440F551F6A95E2F766
S11307B0BA01609562236ABB089527B381E090E093
S11307C0AC0102C0440F551F6A95E2F7BA01609567
S11307D0622367BB089524B381E090E0AC0102C0BA
S11307E0440F551F6A95E2F7BA016095622364BB12
S11307F0089521B381E090E0AC0102C0440F551F7D
S11308006A95E2F7BA016095622361BB08954130AD
S1130810D1F58130A1F0813028F08230E9F08330C5
S113082091F526C02AB381E090E0AC0102C0440FE8
S1130830551F6A95E2F7BA01622B6ABB089527B384
S113084081E090E0AC0102C0440F551F6A95E2F7C5
S1130850BA01622B67BB089544B321E030E0C901BB
S113086002C0880F991F6A95E2F7842B84BB089510
S113087041B321E030E0C90102C0880F991F6A9595
S1130880E2F7842B81BB0895843008F084C068307B
S113089008F081C0442309F042C08130B1F08130B6
S11308A030F0823001F1833009F075C02AC02BB3D7
S11308B081E090E0AC0102C0440F551F6A95E2F755
S11308C0BA01609562236BBB089528B381E090E080
S11308D0AC0102C0440F551F6A95E2F7BA01609556
S11308E0622368BB089525B381E090E0AC0102C0A7
S11308F0440F551F6A95E2F7BA016095622365BB00
S1130900089522B381E090E0AC0102C0440F551F6A
S11309106A95E2F7BA016095622362BB089541309B
S1130920D1F58130A1F0813028F08230E9F08330B4
S113093091F526C02BB381E090E0AC0102C0440FD6
S1130940551F6A95E2F7BA01622B6BBB089528B371
S113095081E090E0AC0102C0440F551F6A95E2F7B4
S1130960BA01622B68BB089545B321E030E0C901A8
S113097002C0880F991F6A95E2F7842B85BB0895FE
S113098042B321E030E0C90102C0880F991F6A9583
S1130990E2F7842B82BB0895843008F03FC06830AE
S11309A008F03CC08130A1F0813028F08230E9F0B9
S11309B08330A1F527C02BB381E090E0AC0102C0E5
S11309C0440F551F6A95E2F7BA0162276BBB08957D
S11309D028B381E090E0AC0102C0440F551F6A9532
S11309E0E2F7BA01622768BB089525B381E090E07D
S11309F0AC0102C0440F551F6A95E2F7BA016227A1
S1130A0065BB089522B381E090E0AC0102C0440FBD
S1130A10551F6A95E2F7BA01622762BB08958430D4
S1130A2008F05AC0683008F057C08130D9F08130DE
S1130A3030F0823051F1833009F04CC039C029B311
S1130A4081E090E0062E02C0880F991F0A94E2F715
S1130A5030E08223932302C0959587956A95E2F747
S1130A60982F38C026B381E090E0062E02C0880F8C
S1130A70991F0A94E2F730E08223932302C09595EC
S1130A8087956A95E2F7982F25C023B381E090E01B
S1130A90062E02C0880F991F0A94E2F730E08223E1
S1130AA0932302C0959587956A95E2F7982F12C013
S1130AB020B381E090E0062E02C0880F991F0A94AB
S1130AC0E2F730E08223932302C0959587956A95D7
S1130AD0E2F7982F892F08950895843080F48130A7
S1130AE049F0813028F0823039F0833041F406C077
S1130AF06ABB089567BB089564BB089561BB0895FC
S1130B00843080F4813049F0813028F0823039F02B
S1130B10833041F406C06BBB089568BB089565BB80
S1130B20089562BB0895823451F1833420F48134F2
S1130B3009F07BC007C0833409F43EC0843409F053
S1130B4074C057C0413069F42BB381E090E0AC012C
S1130B5002C0440F551F6A95E2F7BA01622B6BBBC2
S1130B6008952BB381E090E0AC0102C0440F551FFF
S1130B706A95E2F7BA01609562236BBB0895413030
S1130B8069F428B381E090E0AC0102C0440F551F22
S1130B906A95E2F7BA01622B68BB089528B381E035
S1130BA090E0AC0102C0440F551F6A95E2F7BA0108
S1130BB06095622368BB0895413069F425B381E0F0
S1130BC090E0AC0102C0440F551F6A95E2F7BA01E8
S1130BD0622B65BB089525B381E090E0AC0102C0AF
S1130BE0440F551F6A95E2F7BA016095622365BB0D
S1130BF00895413069F422B381E090E0AC0102C071
S1130C00440F551F6A95E2F7BA01622B62BB08953F
S1130C1022B381E090E0AC0102C0440F551F6A95F5
S1130C20E2F7BA016095622362BB08956F70823463
S1130C3081F0833418F48134F1F405C0833479F0FD
S1130C408434C9F412C08BB3807F8BBB8BB3862BE7
S1130C508BBB88B3807F88BB88B3862B88BB85B366
S1130C60807F85BB85B3862B85BB82B3807F82BBA7
S1130C7082B3682B62BB08956295607F813069F00E
S1130C80813028F0823079F08330C9F412C08BB3FC
S1130C908F708BBB8BB3862B8BBB88B38F7088BB59
S1130CA088B3862B88BB85B38F7085BB85B3862BB1
S1130CB085BB82B38F7082BB82B3682B62BB0895FD
S1130CC083B7826083BF83B78F7B83BF83B7877FFC
S1130CD083BF089583B7886083BF8EE48CBF83B7D6
S1130CE0816083BF83B7846083BF89B7826089BF13
S1130CF008951FBC1EBC8EB581608EBD82EC8EBD76
S1130D0008958EB581608EBD8EB588608EBD1BBC86
S1130D101ABC089585B5826085BD85B58F7B85BD78
S1130D2085B5877F85BD089585B58F7B85BD85B5E0
S1130D30886085BD85B5816085BD1CBE789489B702
S1130D40806889BF089582B5886082BD85B5816059
S1130D5085BD85B5846085BD789489B7806489BF75
S1130D600895BB9A83B7886083BF80E48CBF83B740
S1130D70816083BF83B7846083BF83B7806183BF8F
S1130D80089512BE8CBFBB9A8AE683BF0895BB9AAE
S1130D9083B7806483BF80E48CBF83B7816083BFE3
S1130DA083B7846083BF83B7806183BF83B7806266
S1130DB083BF08958D9A2FB522602FBD2EB528606C
S1130DC02EBD2EB520612EBDBC0180E090E00E94B6
S1130DD0480821E63BE046EB5BE30E94FE0820E086
S1130DE030E040EC5FE30E944C0720E030E04AE74B
S1130DF054E40E94FE080E941C08DC01CB019BBD48
S1130E008ABD8FE19EE497BD86BD8EB581608EBD9F
S1130E108FB580688FBD08958C9A2FB522602FBD41
S1130E202EB528602EBD2EB520612EBDBC0180E0FC
S1130E3090E00E94480821E63BE046EB5BE30E9419
S1130E40FE0820E030E040EC5FE30E944C0720E025
S1130E5030E04AE754E40E94FE080E941C08DC01CA
S1130E60CB0199BD88BD8FE19EE497BD86BD8EB54B
S1130E7081608EBD8FB580628FBD089582B5886014
S1130E8082BD85B5816085BD85B5846085BD89B722
S1130E90806489BF08955058BB27AA270ED070C11B
S1130EA061D130F066D120F031F49F3F11F41EF48B
S1130EB056C10EF4E095E7FB4CC1E92F72D180F3E3
S1130EC0BA17620773078407950718F071F49EF543
S1130ED08AC10EF4E0950B2EBA2FA02D0B01B90197
S1130EE090010C01CA01A0011124FF27591B99F09C
S1130EF0593F50F4503E68F11A16F040A22F232FA8
S1130F00342F4427585FF3CF469537952795A795F7
S1130F10F0405395C9F77EF41F16BA0B620B730B9E
S1130F20840BBAF09150A1F0FF0FBB1F661F771F0F
S1130F30881FC2F70EC0BA0F621F731F841F48F4C4
S1130F40879577956795B795F7959E3F08F0B3CF4A
S1130F509395880F08F09927EE0F97958795089534
S1130F60D4D008F481E008950CD00AC102D140F035
S1130F70F9D030F021F45F3F19F0EBC0511134C1C6
S1130F80EEC00FD198F39923C9F35523B1F3951B00
S1130F90550BBB27AA2762177307840738F09F5F96
S1130FA05F4F220F331F441FAA1FA9F333D00E2E05
S1130FB03AF0E0E830D091505040E695001CCAF772
S1130FC029D0FE2F27D0660F771F881FBB1F261737
S1130FD037074807AB07B0E809F0BB0B802DBF010A
S1130FE0FF2793585F4F2AF09E3F510568F0B1C028
S1130FF0FBC05F3FECF3983EDCF3869577956795ED
S1131000B795F7959F5FC9F7880F911D96958795BA
S113101097F90895E1E0660F771F881FBB1F6217D9
S113102073078407BA0720F0621B730B840BBA0B97
S1131030EE1F88F7E0950895BCD088F09F5790F094
S1131040B92F9927B751A0F0D1F0660F771F881FE9
S1131050991F1AF0BA95C9F712C0B13081F0C3D004
S1131060B1E00895C0C0672F782F8827B85F39F0A2
S1131070B93FCCF3869577956795B395D9F73EF448
S113108090958095709561957F4F8F4F9F4F0895F0
S1131090E89409C097FB3EF490958095709561950E
S11310A07F4F8F4F9F4F9923A9F0F92F96E9BB27C4
S11310B09395F695879577956795B795F111F8CF40
S11310C0FAF4BB0F11F460FF1BC06F5F7F4F8F4FAB
S11310D09F4F16C0882311F096E911C0772321F0A1
S11310E09EE8872F762F05C0662371F096E8862F39
S11310F070E060E02AF09A95660F771F881FDAF790
S1131100880F9695879597F90895990F0008550FBC
S1131110AA0BE0E8FEEF16161706E807F907C0F079
S113112012161306E407F50798F0621B730B840B81
S1131130950B39F40A2661F0232B242B252B21F45B
S113114008950A2609F4A140A6958FEF811D811DFB
S1131150089597F99F6780E870E060E008959FEF35
S113116080EC089500240A9416161706180609063A
S1131170089500240A941216130614060506089509
S1131180092E0394000C11F4882352F0BB0F40F491
S1131190BF2B11F460FF04C06F5F7F4F8F4F9F4FD1
S11311A0089557FD9058440F551F59F05F3F71F053
S11311B04795880F97FB991F61F09F3F79F08795BA
S11311C00895121613061406551FF2CF4695F1DF43
S11311D008C0161617061806991FF1CF86957105D3
S11311E0610508940895E894BB2766277727CB0107
S11311F097F908958ADF08F48FEF08950BD0C0CFD4
S1131200B1DF28F0B6DF18F0952309F0A2CFA7CFFD
S11312101124EACFC6DFA0F3959FD1F3950F50E0D8
S1131220551F629FF001729FBB27F00DB11D639F94
S1131230AA27F00DB11DAA1F649F6627B00DA11D3A
S1131240661F829F2227B00DA11D621F739FB00DE0
S1131250A11D621F839FA00D611D221F749F332750
S1131260A00D611D231F849F600D211D822F762FE9
S11312706A2F11249F5750408AF0E1F088234AF0E6
S1131280EE0FFF1FBB1F661F771F881F9150504032
S1131290A9F79E3F510570F05CCFA6CF5F3FECF3FA
S11312A0983EDCF3869577956795B795F795E7951E
S11312B09F5FC1F7FE2B880F911D9695879597F92F
S11312C00895629FD001739FF001829FE00DF11D8C
S11312D0649FE00DF11D929FF00D839FF00D749FAC
S11312E0F00D659FF00D9927729FB00DE11DF91F58
S11312F0639FB00DE11DF91FBD01CF0111240895B5
S1131300A1E21A2EAA1BBB1BFD010DC0AA1FBB1F05
S1131310EE1FFF1FA217B307E407F50720F0A21B77
S1131320B30BE40BF50B661F771F881F991F1A94E4
S113133069F760957095809590959B01AC01BD010E
S1131340CF01089597FB092E05260ED057FD04D032
S1131350D7DF0AD0001C38F450954095309521957C
S11313603F4F4F4F5F4F0895F6F7909580957095D6
S111137061957F4F8F4F9F4F0895F894FFCFE4
S113137E3734312F3835322A3936332D3D41422B0D
S10B138E54656D70203D200040
S9030000FC
